:020000040800F2
:1000000008070020410200084D1C0008691600087E
:10001000491C000851070008711C0008000000007E
:10002000000000000000000000000000551C000857
:100030005507000800000000511C0008591C00086A
:100040005B0200085B0200085B0200085B0200081C
:100050005B0200085B0200085B0200085B0200080C
:100060005B0200085B0200085B0200085B020008FC
:100070005B0200085B0200085B0200085B020008EC
:100080005B0200085B0200085B0200080000000041
:100090000000000000000000000000005B020008FB
:1000A0005B0200085B0200085B0200085B020008BC
:1000B0005B0200085B0200085B0200085B020008AC
:1000C0005B0200085B0200085B0200085B0200089C
:1000D0005B0200085B0200085B02000800000000F1
:1000E0005B0200085B0200085B02000800000000E1
:1000F0000000000000000000000000005B0200089B
:10010000000000005B0200085B0200085B020008C0
:1001100000000000000000000000000000000000DF
:100120005B0200085B0200085B0200085B0200083B
:100130005B0200080000000000000000000000005A
:100140000000000000000000000000005B0200084A
:100150005B0200085B0200085B0200085B0200080B
:100160005B0200085B0200080000000000000000C5
:10017000000000000000000000000000000000007F
:10018000000000005B02000800000000000000000A
:100190005B0200085B02000800F002F800F041F882
:1001A0000AA090E8000C82448344AAF10107DA45D2
:1001B00001D100F036F8AFF2090EBAE80F0013F0E3
:1001C000010F18BFFB1A43F0010318477C20000001
:1001D0009C200000103A24BF78C878C1FAD8520792
:1001E00024BF30C830C144BF04680C6070470000B1
:1001F0000023002400250026103A28BF78C1FBD830
:10020000520728BF30C148BF0B607047642900F017
:10021000EB80002070471FB501F0E5FF1FBD10B552
:1002200010BD00F05AFA1146FFF7F5FF01F0B8FED5
:1002300000F078FA03B4FFF7F2FF03BC00F080FA95
:100240000948804709480047FEE7FEE7FEE7FEE76A
:10025000FEE7FEE7FEE7FEE7FEE7FEE704480549A6
:10026000054A064B704700005D1C00089901000814
:1002700008010020080700200803002008030020D0
:1002800053EA020C00F069802DE9F04B4FF00006B4
:10029000002B1FBFB3FA83F503FA05F424FA05F621
:1002A0005E4012BF1643B2FA82F502FA05F4C5F1B8
:1002B00020051EBF22FA05FC44EA0C04203556EA4C
:1002C000044C4FEA144418BF641C4FF000084FF070
:1002D0000009904271EB030C39D3002919BFB1FA20
:1002E00081F701FA07F6B0FA80F700FA07F6C7F1CE
:1002F00020071EBF20FA07FC46EA0C062037B6FB93
:10030000F4FCA7EB0507103F07F01F0BCBF120060D
:100310002CFA06F60CFA0BFB44BFB3460026202F3E
:10032000A4BF5E464FF0000B5BEA060C08BF4FF01F
:10033000010B19EB0B0948EB0608ABFB027C06FB33
:1003400002CC0BFB03CCC01B71EB0C01C1E70B46CD
:10035000024641464846BDE8F08B13B5084318BF36
:100360004FF0FF300146AFF30080BDE81C407047FE
:100370000FB41CB5074B06AA7B446946009005984C
:1003800000F093F90020694600F0A2F91CBC5DF86A
:1003900014FB00005503000070B504468569006831
:1003A000C10601D5302600E02026C00707D070BD69
:1003B000D4E9012130469047206A401C20626D1E1E
:1003C000F6D570BD70B5044685690078C00707D1C1
:1003D00070BDD4E9012120209047206A401C206292
:1003E0006D1EF6D570BD00002DE9F04106460024D3
:1003F00010687529314616A510D0AFF3008000288B
:1004000002DA404213A507E031688A0701D512A538
:1004100002E0490704D511A5012401E0AFF30080F3
:1004200000210A2206F1240709E0B0FBF2FCB0FB30
:10043000F2F302FB1C00303078541846491C0028A7
:10044000F3D123462A463046BDE8F04100F0CEB84D
:10045000000000002D0000002B0000002000000024
:100460002DE9F05F894604464FF0000ADFF824B119
:10047000FB44C0F820A02046E168884700287DD0D2
:10048000252806D0D4E901219047206A401C20622B
:10049000F1E700255F462046E168884720280646A8
:1004A00007DB312E05D2B81910F8200C08B105432E
:1004B000F1E7A80701D525F00405C4F81CA0002722
:1004C000C4F818A02A2E09D0304601F085FE38B3B2
:1004D00004EB8708303EC8F8186019E059F8041B8F
:1004E000204604EB87029161E1688847012F0646A8
:1004F00018D1E069002820DA25F020051DE0D8F8A1
:10050000180000EB800006EB40003038C8F81800F7
:100510002046E1688847064601F05EFE0028EED1DD
:10052000012F0AD02E2E08D12046E16888477F1C73
:100530000646022F45F02005C4DBA069002803DA37
:10054000404245F00105A061E80701D025F0100503
:10055000A6B1A6F14100192802D8203645F400655D
:100560004A463146204625604D46FFF74FFE60B1B2
:10057000012807D0ED1D25F0070000E007E000F19D
:10058000080978E705F1040975E730467AE7206A3B
:10059000BDE8F09F8C1D00004FF0000200B513462F
:1005A00094469646203922BFA0E80C50A0E80C5093
:1005B000B1F12001BFF4F7AF090728BFA0E80C5044
:1005C00048BF0CC05DF804EB890028BF40F8042B3D
:1005D00008BF704748BF20F8022B11F0804F18BFAA
:1005E00000F8012B70477047704770472DE9F047BE
:1005F0000D4699469246044600F124080168880693
:1006000004D5E06921F01001216000E00120A8423A
:1006100001DD471B00E00027A1697A1902EB090000
:10062000081AA0612078C00602D42046FFF7B4FE65
:10063000002608E0D4E901211AF806009047206A54
:10064000401C761C20624E45F4DB2078C0060AD59B
:100650002046FFF7A1FE06E0D4E9012130209047B3
:10066000206A401C2062381EA7F10107F4DC07E075
:10067000D4E9012118F805009047206A401C206247
:10068000281EA5F10105F3DC2046FFF79BFE20782C
:10069000000602D50220BDE8F0870120FBE700003C
:1006A00001694A1C02610878704700B58FB0CDE936
:1006B00001310021059105497944CDE90310114626
:1006C0006846FFF7CDFE0FB000BD0000E5FFFFFF5D
:1006D0000A6802F8010B0A607047754600F02CF8B2
:1006E000AE4605006946534620F00700854618B01F
:1006F00020B5FFF7B3FDBDE820404FF000064FF0F6
:1007000000074FF000084FF0000BAC46ACE8C00902
:10071000ACE8C009ACE8C009ACE8C00921F00701A9
:100720008D46704710B50446AFF300802046BDE803
:100730001040FFF77FBD00000048704728000020F0
:1007400001491820ABBEFEE72600020070470000FA
:10075000FEE700007047000010B584B04FF47A70D7
:10076000072140F2F804CDE9011040F2A400C2F2E2
:100770000004C2F20000D02100220123009400F006
:100780009DFA204604B010BDB0B5044600F0EAF86A
:10079000054640F20000C2F200000078611C18BF5C
:1007A000044400BF00F0DEF8401BA042FAD3B0BD05
:1007B0002DE9F04F82B000F13E4241F2000502F116
:1007C000FF77C4F20205072243F6004E4FEAB72630
:1007D000A84208BF0422C4F2010E042E38BF4FEA1B
:1007E000B7220125002600274FF00008009208E0FC
:1007F00008F101080437B8F1100F06F1020600F005
:10080000A7800C6805FA08F914EA090FF0D0D1F8AE
:1008100004B003220BF0030CACF10104B240012C34
:100820006FEA020A10D88268CC6802EA0A02B44071
:10083000224382604268CBF3001422EA090204FAE0
:1008400008F42243426005E0BCF1030F02D14FF0EF
:10085000030C20E0C2688C6802EA0A02B44022431A
:10086000BCF1020FC26016D16FF0030202EA580217
:100870000244D2F820C007F01C050F230C69AB40DE
:100880002CEA030304FA05F52B431362D1F804B0F4
:1008900001250BF0030C02680CFA06F302EA0A02C7
:1008A0001A431BF4403F0260A2D0002243F64403E7
:1008B0000192C4F202031A684FF6084C42F48042D7
:1008C0001A601A68CFF6FF7C02F480420192019A06
:1008D00028F00302724452F80C3007F00C050F2484
:1008E000AC40A343009C04FA05F52B4342F80C30BE
:1008F000DEF808204B6842EA090543F60C4CDC029E
:1009000058BF22EA0905CEF80850C4F2010CDCF801
:1009100000209C0242EA090558BF22EA0905CCF8EA
:100920000050DEF804209C0342EA090558BF22EA81
:100930000905CEF80450DEF80020DB0342EA090581
:1009400058BF22EA0905CEF80050012550E700BF44
:1009500002B0BDE8F08F0000002A08BF09048161E1
:100960007047000040F20410C2F2000000687047B7
:1009700070B5B8B3044690F83D0028B9002084F85B
:100980003C00204600F0C8FA242084F83D0020688E
:10099000016821F001010160016841F4004101603A
:1009A000016821F40041016000F044FC48F28041FC
:1009B000C0F21E0140F60013D4F804E088424FF064
:1009C0000001C0F23D0348F2A16C4FF0000238BFB5
:1009D00001219842C0F2010C38BF0122E64538BF20
:1009E0000A460AB1012070BD4DF68361C4F21B3185
:1009F000A0FB01122168950C4B684FF4967623F00A
:100A00003F0343EA9243754344F6D3564B60C1F229
:100A100062060B6AA5FB0656B50923F03F03E645BF
:100A200038BF950C6A1C1A430A62CA6948F2A0666C
:100A30004CF6FF73C0F20106B64522EA03020BD85A
:100A400001384FEA4E03B0FBF3F001306FF31F3073
:100A5000042898BF04201EE0A368013863B119235D
:100A60000EFB03F3B0FBF3F001306FF31F3078B1EE
:100A700000F5804008E000BF0EEB4E03B0FBF3F042
:100A800001306FF31F3028B100F5004003E000BFD4
:100A9000012000E001201043C8610868D4E9072361
:100AA00020F0C000104318430860886848F2FF3205
:100AB00004F10C0690434CCE18431043A56988609E
:100AC000C86820F0FF0030432843C860086840F041
:100AD0000100086000202021206484F83D1020637C
:100AE00084F83E0070BD00002DE9F04383B01E463F
:100AF000174689460446FFF735FF94F83D10202934
:100B000020D10546206800BF8169890716D5FFF707
:100B100029FF411B20681A29F6D381698907F3D57B
:100B200000202021206384F83D1084F83E00216CD1
:100B300041F02001216484F83C0003E094F83C106B
:100B4000012903D1022003B0BDE8F083012184F81C
:100B50003C100168C90703D1016841F0010101603F
:100B6000016840F2020821F400610160212184F84B
:100B70003D10102184F83E100021216467626685D3
:100B8000618DC0F201082185A8F10211E162E16ADC
:100B90000A9E11F5803F18BF01291DD1016841F45B
:100BA0008071016020464FF001110022334600950C
:100BB00000F048FE50B120680068C00544BF4FF403
:100BC00000702064012003B0BDE8F0832069B0F517
:100BD000804F07D1FE2015E00829DFD0216B1229B4
:100BE000DCD0DFE7062000EAD9102168F030086188
:100BF00008F10601204632462B4600F00DFF002882
:100C0000E0D1FF20216800EA090008612046414642
:100C100032462B4600F000FF0028D3D1002002907E
:100C200020684169029180690290029806E000BF45
:100C3000204631462A4600F0A5FD18BB208D68B33A
:100C4000204631462A4600F09FFFD8B9606A2168E5
:100C5000024612F8013B0B616262628D013A6285C5
:100C6000228D531E23854F697F07E1D51B04DFD0FA
:100C7000437802300B616062608D01386085901EA0
:100C80002085D5E7206C04289CD12068016841F4B8
:100C900000710160012003B0BDE8F08320680168A5
:100CA00041F400710160202084F83D00002084F8A8
:100CB0003E0084F83C0003B0BDE8F0832DE9F04726
:100CC00084B0994616460F460446FFF74BFE94F84B
:100CD0003D10202927D10546206800BF816989077A
:100CE0001CD5FFF73FFE411B20681A29F6D3816906
:100CF0008907F3D500202021206384F83D1084F873
:100D00003E00206C04F13C0A40F0200020640220E8
:100D100000218AF8001004B0BDE8F087A2461AF856
:100D20003C1F012904D1022004B0BDE8F08700BFB8
:100D300001228AF800200368DDE90D180C9ADB0710
:100D400003D1036843F001030360036823F40063E5
:100D50000360222084F83D00402084F83E000020FB
:100D6000206462626185608D394620850020CFF65F
:100D7000FF70E062204632464B46CDF80080019578
:100D800000F074FC20B1012004B0BDE8F08700BF82
:100D9000208DA8B102282BD0012835D121680A68FE
:100DA00022F480620A60002203924A6903928A69EF
:100DB0000392039A0A6842F400720A602CE000BFB2
:100DC0000020039020684169039181690391039990
:100DD000016841F400710160202084F83D0000208A
:100DE00084F83E0000218AF8001004B0BDE8F087C6
:100DF00021680A6822F480620A600A6842F400628C
:100E00000A600022039202E00021039121684A69EE
:100E100003928969039103990427C0F201070CE04A
:100E200010690870606A218D01306062481E20855B
:100E3000618D013961850104CED080B203280FD8BD
:100E400002284AD001282DD1204641462A4600F0EA
:100E500053FE002897D12068616A0069E1E700BF6E
:100E6000204641462A4600F047FE00287FF48BAF1B
:100E70002068616A00690870606A2268411C208DE0
:100E8000616201382085638D013B638553695B078F
:100E9000D1D580B20328C3D1106820F480601060DF
:100EA000BEE700BF2046394600224346009500F0C9
:100EB000C9FC00287FF467AF2068616A026822F4E9
:100EC0008062026000690870606A218D0130606292
:100ED000481E2085608D01386085204639460022F5
:100EE0004346009500F0AEFC00287FF44CAF20682C
:100EF000616A026842F40072026000690870606A08
:100F00002268411C6162218D01392185618D013981
:100F100061851169417085E7B0B586B0016845F219
:100F20000040C4F20000814202D006B0B0BD00BF54
:100F3000002543F630040195C4F20204216800F54F
:100F4000D83041F002012160216801F002010191D5
:100F500001994FF4407101911221029101210391F5
:100F6000022104910421059101A9FFF721FC0095BC
:100F7000206940F400102061206900F40010009006
:100F8000009806B0B0BD000040F2000040F204112D
:100F9000C2F20000C2F2000100780A681044086042
:100FA0007047000080B543F60040C4F202000168BB
:100FB00041F400710160016841F4806101600168E1
:100FC00041F480710160032000F074F80F2000F0FC
:100FD00005F800F027F8002080BD000070B540F251
:100FE0000006C2F2000640F208013278C2F20001A7
:100FF0004FF47A730968B3FBF2F20446B1FBF2F1E5
:10100000084600F01BFB0F2C4FF0010508D838B93B
:101010004FF0FF3021460022002500F01FF87460D9
:10102000284670BD82B0002043F640010190C4F212
:1010300002014A6842F480424A604A6802F48042EF
:101040000192019A0090086840F08050086008689A
:1010500000F080500090009802B0704710B54EF636
:101060000C5CCEF2000CDCF80030C3F3022E8EF0E4
:101070000704042C28BF0424BEF103034FF0FF3EF5
:101080000EFA04F438BF0023A14399400EFA03F38B
:101090009A43114300F00F0200F160430901043A42
:1010A00003F564436244002848BF02F10C03197041
:1010B00010BD00004EF60C51CEF200010A684FF64A
:1010C000FF031A4060F30A2242F0806040F0FD7096
:1010D000086070472DE9F041002800F08B8043F64E
:1010E0000808C4F202080446D8F8F8030D4600F0D8
:1010F0000700884207D288F8F853D8F8F80300F0C0
:101100000700A84276D12068810717D5410705D589
:10111000D8F8001041F4E051C8F80010010705D5D7
:10112000D8F8001041F46041C8F80010D8F8001059
:10113000A26821F0F0011143C8F80010C0073FD1A8
:10114000D8F8F80300F00700A84207D988F8F85348
:10115000D8F8F80300F00700A8424BD120684107F7
:1011600007D5D8F80010E26821F4E0511143C8F81F
:101170000010000708D5D8F80000216920F460406D
:1011800040EAC100C8F8000000F068F8D8F8001084
:1011900042F21122C1F30311C0F60002515C40F289
:1011A000080220FA01F140F20400C2F200000068D7
:1011B000C2F200021160FFF711FF0020BDE8F081CC
:1011C0006068811E022907D258F8081C89015CBF9B
:1011D0000120BDE8F08111E0012807D158F8081C72
:1011E00089035CBF0120BDE8F08107E058F8081CC6
:1011F000890703D40120BDE8F08100BFD8F80010B2
:1012000021F003010843C8F80000FFF7ABFB0646D6
:1012100041F28837D8F80000616800F00C00B0EBAC
:10122000810F8DD0FFF79EFB801BB842F2D90320BF
:10123000BDE8F08140F2080043F60801C2F2000068
:10124000C4F202010068096842F22122C1F382213E
:10125000C0F60002515CC8407047000010B543F66C
:101260000404C4F20204606800F00C0008280BD0EB
:10127000042819BF42F20040C0F2F40047F64000D3
:10128000C0F27D1010BD00BF2068216823684902AC
:1012900047F64001C0F27D1100F03F02C3F3881011
:1012A0005CBF42F20041C0F2F401A1FB0001002347
:1012B000FEF7E6FF21680222C1F3014102EB410182
:1012C000B0FBF1F010BD00002DE9F04182B0002824
:1012D00068D00446007843F60006C007C4F2020650
:1012E0000BD0B06800F00C00042840F09F803068FC
:1012F000800302D56068002854D0207880071AD572
:10130000B06810F00C0F09D0B06800F00C0008288D
:1013100040F0A6807068400200F1A280306880072B
:1013200002D5E06801283DD13068216920F0F8003D
:1013300040EAC10030602078000737D420784007A9
:101340004CD4A56955B3B06800F00C00082840F0F3
:10135000BB80012D26D07068E16900F480028A42CA
:1013600020D1216A00F03F028A421BD147F6C071AA
:10137000626A0140B1EB821F14D1A16A4FF6FF737C
:10138000C903994300F44032A1F580318A4209D162
:10139000E16A00F07060B0EB016F03D1002002B091
:1013A000BDE8F081012002B0BDE8F081606900284D
:1013B00040F20000C4F2472076D00121C0F8801E20
:1013C000FFF7D0FA054600BF706F8007B6D4FFF76D
:1013D000C9FA401B0228F7D9DDE000BF306C10F0DD
:1013E00080580AD100200190306C40F08050306469
:1013F000306C00F080500190019847F20007C4F271
:1014000000073868C00541D4386840F480703860FF
:10141000FFF7A8FA054600BF3868C00536D4FFF7C5
:10142000A1FA401B0228F7D9B5E000BFB06800F070
:101430000C00082803D1706840023FF558AF60687F
:10144000B0F5803F07D0B0F5A02F40F08D80306818
:1014500040F480203060306840F4803030608DE0AF
:10146000E068002852D00020C4F24720012101602A
:10147000FFF778FA054600BF306880073FF554AFA4
:10148000FFF770FA401B0228F6D984E0A068012813
:1014900005D005284ED1306F40F004003067306F22
:1014A00040F0010030674FE00021C0F8801EFFF7D8
:1014B00059FA0546706F80077FF540AFFFF752FA83
:1014C000401B0228F6D966E00027C4F24727002017
:1014D0003866FFF747FA022D05460BD130688001C8
:1014E0005ED5FFF73FFA401B02284FF00300F5D905
:1014F00055E700BF306880017FF550AFFFF732FA43
:10150000401B02284FF00300F4D948E70020C4F242
:10151000472000210160FFF725FA05463068800763
:101520007FF509AFFFF71EFA401B02284FF00300BA
:10153000F4D934E7316F002821F001013167316FB0
:1015400021F0040131674DD0FFF70CFA054641F256
:10155000883700BF306F800756D4FFF703FA401B6F
:10156000B842F7D917E000BF3168002821F4803174
:101570003160316821F4802131604FD0FFF7F2F9FA
:10158000054600BF306880033FF5B7AEFFF7EAF9C4
:10159000401B6428F6D9032002B0BDE8F08100BFEB
:1015A00004F11C052FCD084340EA8210D9034FF601
:1015B000FF729143A1F5803140EA056008437060F5
:1015C00001203866FFF7CEF9044600BF306880017D
:1015D0003FF5E4AEFFF7C6F9001B02284FF0030009
:1015E000F4D9DCE6FFF7BEF9054641F2883700BFC3
:1015F000306F800708D5FFF7B5F9401BB8424FF0B0
:101600000300F5D9CBE600BFB8F1000F7FF499AE27
:10161000306C20F08050306493E600BFFFF7A2F9F1
:10162000054600BF306880037FF567AEFFF79AF983
:10163000401B64284FF00300F4D9B0E6411E00209F
:10164000B0EB116F1CBF012070474EF21002CEF2BA
:10165000000251604EF62351CEF20001F0230B70D0
:101660000721906011607047FEE700002DE9F04708
:1016700082B0044600680E460168DDF828A041F4F7
:10168000806101600168DDF82C9041F480711D4695
:101690001746016020464FF0011100225346CDF855
:1016A000009000F0CFF858B120680068C00544BF32
:1016B0004FF400702064032002B0BDE8F08700BF43
:1016C00040F202082068C0F2010806F0FE0606613A
:1016D0002046414652464B4600F09EF920B101207B
:1016E00002B0BDE8F08700BF0020019020684A46A4
:1016F000416901918069514601900198204600F0AE
:1017000043FA98B92068012D08D0390A01612046B2
:1017100051464A4600F038FA40B92068F9B20161F2
:10172000204651464A4600F02FFA58B1206C042852
:10173000D5D12068016841F400710160012002B038
:10174000BDE8F087206800220168534641F48071AB
:10175000016020464FF00111CDF8009000F072F8C2
:101760000028A1D1206846F00101016120464146D0
:1017700052464B4600F050F9002818BF012002B035
:10178000BDE8F08770B50368044653F8140F4007AE
:1017900011D40E46481C29D086BB00BF18684005EE
:1017A00027D4FFF7DFF8236853F8140F400739D523
:1017B00018684007F2D5002070BD00BF18684007C8
:1017C000F9D41868400514D418684007F3D4186891
:1017D00040050ED418684007EDD41868400508D4B9
:1017E000186840074FF0000048BF70BD18684005FA
:1017F000E4D56FF480601860042014E0154603E01F
:1018000053F8140F4007D6D418684005F1D4FFF7F9
:10181000A9F8401B2368B042F2D958694007EFD4B9
:10182000202000E0202000212022216384F83D2098
:1018300084F83E10226C10432064012084F83C1090
:1018400070BD00002DE9F041054600681E461446B3
:1018500001F47F0201338FB242D0DDF81880B2F577
:10186000803F40F0878040693840C01BB0FA80F06C
:101870004009A04240F0C8804EB924E04069384099
:10188000C01BB0FA80F04009A04240F0BD80FFF7D5
:1018900069F8A0EB08012868B142EFD941693940E5
:1018A000C91BB1FA81F14909A142E7D19BE000BF10
:1018B00040693840C01BB0FA80F04009A0424FF0A8
:1018C000000040F0A680FFF74DF8286841693940D4
:1018D000C91BB1FA81F14909A142E9D183E000BFF6
:1018E000B2F5803F24D100BF41693940C91BB1FA2C
:1018F00081F14909A14240F0878041693940C91B03
:10190000B1FA81F14909A14240F07E804169394034
:10191000C91BB1FA81F14909A14275D14169394028
:10192000C91BB1FA81F14909A142DDD06CE000BFC9
:1019300081693940C91BB1FA81F14909A14263D1DA
:1019400081693940C91BB1FA81F14909A1425BD1D2
:1019500081693940C91BB1FA81F14909A14253D1CA
:1019600081693940C91BB1FA81F14909A142DFD02F
:101970004AE000BF80693840C01BB0FA80F04009DF
:10198000A04241D146B923E080693840C01BB0FA7B
:1019900080F04009A0423BD1FEF7E4FFA0EB080134
:1019A0002868B142F0D981693940C91BB1FA81F187
:1019B0004909A142E8D116E080693840C01BB0FA5D
:1019C00080F04009A0424FF0000018BFBDE8F08150
:1019D000FEF7C8FF286881693940C91BB1FA81F157
:1019E0004909A142E8D100202021286385F83D1053
:1019F00085F83E00296C41F02001296485F83C00FF
:101A00000120BDE8F08100BF0020BDE8F08100BFEB
:101A10000020BDE8F0810000F0B581B00446006808
:101A20001D4643698FB203EA0701B94202D1002083
:101A300001B0F0BD41691646013201F4806125D044
:101A4000002940D1CEB100BFFEF78CFF411B2068BA
:101A5000B14203D941693940B9424BD1416939405A
:101A6000B942E4D041694905EED52CE041693940DD
:101A7000B942DCD04169490525D4FEF773FF2068DF
:101A800041693940B942F1D0202024E0D9B94169F7
:101A90003940B942CBD04169490514D44169394034
:101AA000B942C4D0416949050DD441693940B942B0
:101AB000BDD04169490506D441693940B942B6D023
:101AC00041694905E3D5016841F4007101606FF493
:101AD00080614161042000212022216384F83D209F
:101AE00084F83E10226C1043206484F83C100120DE
:101AF00001B0F0BD2020EEE770B504460068154641
:101B000050F8143F5A063DD40E4629B926E000BFCE
:101B100050F8141F490635D40168C90621D4FEF7D0
:101B200021FF411B2068B142F2D941694906EFD437
:101B300000202021206384F83D1084F83E00206CB2
:101B400040F0200018E000BFFEF70CFF206850F8BE
:101B5000141F4906ECD50168490613D40168C9066B
:101B6000F2D56FF01001016000202021206384F87D
:101B70003D1084F83E00206C2064002084F83C0076
:101B8000012070BD002070BD70B50368044653F895
:101B9000140F000611D40E46481C29D086BB00BF86
:101BA0001868400527D4FEF7DDFE236853F8140FAC
:101BB000000639D518680006F2D5002070BD00BFB8
:101BC00018680006F9D41868400514D4186800068F
:101BD000F3D4186840050ED418680006EDD41868D0
:101BE000400508D4186800064FF0000048BF70BDDB
:101BF00018684005E4D56FF480601860042014E094
:101C0000154603E053F8140F0006D6D418684005B3
:101C1000F1D4FEF7A7FE401B2368B042F2D9586901
:101C20000006EFD4202000E02020002120222163A4
:101C300084F83D2084F83E10226C1043206401207B
:101C400084F83C1070BD0000FEE70000FEE70000D5
:101C50007047000070470000FFF796B94EF68850B5
:101C6000CEF20000016841F470010160704700008D
:101C7000FEE70000010901EB810100F00F0000EB1D
:101C80004100704780B582B0132805D821B9000102
:101C900048F68C0107E000BF13281DD801291BD18D
:101CA00000014CF6CC01ADF8041000F10C01083035
:101CB0008DF806108DF8070040F2A4004FF0640C78
:101CC000C2F2000001AA4E210423CDF800C0FEF7A5
:101CD0000BFF02B080BD00BF13280FD802290DD121
:101CE00049F69C01ADF804104C2141EA00118DF831
:101CF0000610482141EA0010DCE700BF13281CD879
:101D000003291AD14DF6DC01ADF804104C2141EA4B
:101D100000118DF80610482141EA00108DF80700E7
:101D200040F2A4004FF0640CC2F2000001AA4E2160
:101D30000423CDF800C0FEF7D7FE02B080BD00003E
:101D4000142808BF042905D0102808BF02290BD089
:101D5000704700BF40F2D47040F20011C2F200019F
:101D6000088000F05DB800BF40F2426040F2001110
:101D7000C2F20001088000F053B8000080B584B0C2
:101D800040F20012C2F20002128840F242639A420C
:101D900008D040F2D4739A423FD104B0BDE88040ED
:101DA000FFF770BF0F281BD8D1B9000148F68C018E
:101DB000ADF8081000F10C0108308DF80B0040F26E
:101DC000A4008DF80A104FF0640CC2F2000002AAC1
:101DD0004E210423CDF800C0FEF786FE04B080BD7E
:101DE0000F281AD8012918D100014CF6CC01ADF802
:101DF0000C1000F10C0108308DF80F0040F2A40027
:101E00008DF80E104FF0640CC2F2000003AA4E21B0
:101E10000423CDF800C0FEF767FE04B080BD0000CB
:101E200070B582B040F2A40443F63C06C2F200044E
:101E3000C0F60C06642501AA20464E210423019613
:101E40000095FEF751FE0520FEF79EFC01AA2046F4
:101E50004E21042301960095FEF746FE0120FEF771
:101E600093FC01AA20464E21042301960095FEF71B
:101E70003BFE0A20FEF788FC42F62C00C0F60C0060
:101E8000019001AA20464E2104230095FEF72CFE66
:101E90000A20FEF779FC42F62C00C8F68C0001906F
:101EA00001AA20464E2104230095FEF71DFE0120C5
:101EB000FEF76AFC40F60C00C8F68C00019001AAFF
:101EC00020464E2104230095FEF70EFE0120FEF76A
:101ED0005BFC40F60C00C1F61C00019001AA2046F4
:101EE0004E2104230095FEF7FFFD0120FEF74CFC78
:101EF00040F60C00C6F66C00019001AA20464E2167
:101F000004230095FEF7F0FD0120FEF73DFC40F6AE
:101F10000C00CCF6CC00019001AA20464E210423EF
:101F20000095FEF7E1FD0120FEF72EFC48F68C003F
:101F3000C0F60C00019001AA20464E210423009512
:101F4000FEF7D2FD02B070BDF0B583B0017821B3C9
:101F500040F2A404461E6427C2F2000402AD00BF92
:101F600021F00F00090100F10D0209308DF8090080
:101F700001F10D008DF80A0001F109008DF808202B
:101F80008DF80B0020464E212A4604230097FEF7C9
:101F9000ABFDB17801360029E2D103B0F0BD0000FD
:101FA00094B043F6300647F20005C4F20206C4F2CC
:101FB0000005FEF7F7FF08AC201D2C21FEF7ECFA18
:101FC00000270797CDE90577CDE9037702973069B8
:101FD00040F080503061306900F0805002900298EB
:101FE0000297286840F440402860286800F4404088
:101FF000029002980220089001200B9010200C9073
:1020000020460E97FFF760F910B172B6FEE700BFE9
:102010000F20CDE9030703A80021CDE90577079735
:10202000FFF758F810B172B6FEE700BF00270C9713
:102030000397306805F5C83440F0800030603068A0
:10204000202100F08000039003980397306800225D
:1020500040F0010030603068202500F0010003905E
:1020600003980397306840F002003060306800F059
:102070000200039003982046FEF76EFC0120CDE994
:10208000090708A9204608950B97FEF791FB40F237
:102090008804C2F2000445F20041C4F20001204667
:1020A00040F81C1F48F2A061C0F201014FF48042C9
:1020B000C0E90117C0E90372C0E90577C0E90777F5
:1020C000FEF756FC10B172B6FEE700BF14200421E3
:1020D000FFF736FE40F20C0A0FF2C40804F10B05BC
:1020E0000FF2D009C2F2000A36A700BFFEF734FB98
:1020F000206001200321FFF741FE4046FFF724FF47
:1021000020680078FFF7B6FD216820714878FFF756
:10211000B1FD216860718878FFF7ACFD2168A0717E
:10212000C878FFF7A7FD2168E0710879FFF7A2FDE5
:10213000216820724879FFF79DFD216860728879D7
:10214000FFF798FD26796379A279A072284649465F
:102150000096FEF70DF900200021FFF70FFE28463C
:10216000FFF7F2FE0E200021FFF708FEE0795AF893
:102170002000FFF7E9FE227A637AA67A28463946DC
:102180000096FEF7F5F800200121FFF7F7FD28463D
:10219000FFF7DAFE4FF4FA70FEF7F6FAA6E700BF93
:1021A000496E6E6F7638204875622C204162756AE0
:1021B00061000000253032643A253032643A25301F
:1021C00032640000253032642D253032642D3230E7
:1021D000253032640000000030380A2801D2012086
:1021E000704700207047F1EE100A4FF6FF71C0F201
:1021F000C03120EA010040F04070E1EE100A704763
:1022000004000008000000000000000200010000BF
:10221000100000000000000000010203040607088F
:10222000090000000001020304576564005475654D
:1022300000467269004D6F6E0053756E00536174F5
:1022400000546875000000006822000800000020AB
:1022500028000000D4010008902200082800002077
:10226000E0060000F001000801000000100000007E
:102270000024F40039220008352200082D2200082D
:102280002922000841220008312200083D220008CE
:040000050800019955
:00000001FF
